:100000000C9454010C947C010C947C010C947C01A4
:100010000C947C010C947C010C947C010C947C016C
:100020000C947C010C947C010C947C010C947C015C
:100030000C947C010C947C010C947C010C947C014C
:100040000C949D030C947C010C9492020C946C0211
:100050000C947C010C947C010C947C010C947C012C
:100060000C9499040C947C01000000000000005FD7
:1000700000000007000700147F147F14242A7F2A41
:10008000122313086462364955225000050300000C
:10009000001C2241000041221C0014083E081408E4
:1000A000083E0808005030000008080808080060F2
:1000B00060000020100804023E5149453E00427F86
:1000C000400042615149462141454B311814127F8D
:1000D0001027454545393C4A494930017109050316
:1000E0003649494936064949291E0036360000007E
:1000F0005636000008142241001414141414004150
:100100002214080201510906324979413E7E11113B
:10011000117E7F494949363E414141227F4141227A
:100120001C7F494949417F090909013E4149497AF2
:100130007F0808087F00417F41002040413F017F48
:10014000081422417F404040407F020C027F7F0420
:1001500008107F3E4141413E7F090909063E415159
:10016000215E7F09192946464949493101017F012C
:10017000013F4040403F1F2040201F3F4038403F4C
:100180006314081463070870080761514945430068
:100190007F41410002040810200041417F00040219
:1001A0000102044040404040000102040020545439
:1001B00054787F48444438384444442038444448C0
:1001C0007F3854545418087E0901020C5252523E92
:1001D0007F0804047800447D40002040443D007FB7
:1001E0001028440000417F40007C041804787C08FB
:1001F00004047838444444387C1414140808141453
:10020000187C7C080404084854545420043F44409B
:10021000203C4040207C1C2040201C3C4030403C86
:1002200044281028440C5050503C4464544C440022
:100230000836410000007F00000041360800100829
:100240000810080000000000000000002400270043
:100250002A0000000000250028002B0004040404EC
:100260000404040402020202020203030303030360
:10027000010204081020408001020408102001023D
:100280000408102000000008000201000003040719
:1002900000000000000000001F1C1F1E1F1E1F1F6B
:1002A0001E1F1E1F30141B1411241FBECFEFD8E0D9
:1002B000DEBFCDBF13E0A0E0B1E0E2E7F4E302C0AF
:1002C00005900D92AA37B107D9F725E0AAE7B3E068
:1002D00001C01D92A13AB207E1F711E0C3E5D1E0F8
:1002E00004C02197FE010E949715C235D107C9F7B6
:1002F0000E94D00C0C942C1A0C9400003FB7F89478
:100300008091D5039091D603A091D703B091D803E3
:1003100026B5A89B05C02F3F19F00196A11DB11D60
:100320003FBFBA2FA92F982F8827820F911DA11D9B
:10033000B11DBC01CD0142E0660F771F881F991FD8
:100340004A95D1F7089585ED8093BC008091BC005B
:1003500084FDFCCF1092DE0408954091AB03262F5C
:1003600030E0240F311D21323105DCF42091DE0410
:100370002430C9F4FC0180E090E0861758F43091F5
:10038000AB032191DC01A757BC4FA30FB11D2C93E8
:100390000196F3CF8091AB03680F6093AB0380E0CD
:1003A000089581E0089582E008950895E091E204BF
:1003B0008091E104E81730F4F0E0E15EFB4F8081CA
:1003C00090E008958FEF9FEF08959091E20480915F
:1003D000E104981750F4E92FF0E0E15EFB4F208133
:1003E00030E09F5F9093E20402C02FEF3FEFC9011E
:1003F00008958091E10490E02091E204821B91092C
:100400000895CF92DF92EF92FF920F931F93CF93B5
:10041000DF937C01262F972F8A018091D9038823AF
:1004200091F0C62FD72F6E01C40ED51ECC15DD0559
:1004300071F06991D701ED91FC910190F081E02D6F
:10044000C7010995F3CF642F822F0E94AD01C80127
:10045000DF91CF911F910F91FF90EF90DF90CF90A0
:100460000895CF93DF931F92CDB7DEB769832091B4
:10047000D9032223D1F02091DF04203240F021E083
:1004800030E0FC013383228380E090E015C080914E
:10049000E004E82FF0E0E652FC4F998190838F5FF3
:1004A0008093E0048093DF0405C061E0CE010196F3
:1004B0000E94AD0181E090E00F90DF91CF9108950F
:1004C0008FE394E00E94530821E0892B09F420E097
:1004D000822F08950E94B3181F920F920FB60F92A9
:1004E00011242F933F934F935F936F937F938F9339
:1004F0009F93AF93BF93EF93FF938FE394E00E949A
:10050000DD0BFF91EF91BF91AF919F918F917F9103
:100510006F915F914F913F912F910F900FBE0F9070
:100520001F9018951F920F920FB60F9211242F93C0
:100530008F939F93EF93FF93E0914F04F0915004BA
:100540008081E0915504F091560482FD12C09081A3
:10055000809158048F5F8F7320915904821751F056
:10056000E0915804F0E0E15CFB4F958F80935804D4
:1005700001C08081FF91EF919F918F912F910F90FA
:100580000FBE0F901F90189590E0FC01EC57FD4FA7
:100590003491FC01E059FD4F2491FC01E45AFD4FD8
:1005A000E491EE2309F43BC0332339F1333091F069
:1005B00038F43130A9F0323001F584B58F7D12C0A6
:1005C000373091F03830A1F03430B9F480918000A8
:1005D0008F7D03C0809180008F77809380000DC055
:1005E00084B58F7784BD09C08091B0008F7703C038
:1005F0008091B0008F7D8093B000F0E0EE0FFF1F80
:10060000EE5AFD4FA591B4918FB7F894EC9161111A
:1006100003C020952E2301C02E2B2C938FBF08954D
:10062000CF93DF9390E0FC01E059FD4F2491FC0152
:10063000E45AFD4F8491882361F190E0880F991F5F
:10064000FC01E85BFD4FC591D491FC01EE5AFD4FD2
:10065000A591B491611109C09FB7F8948881209544
:1006600082238883EC912E230BC0623061F49FB704
:10067000F8943881822F809583238883EC912E2BE8
:100680002C939FBF06C08FB7F894E8812E2B288348
:100690008FBFDF91CF9108958E3008F08E50877014
:1006A000806480937C0080917A00806480937A00DB
:1006B00080917A0086FDFCCF8091780020917900AE
:1006C00090E0922B08958F929F92AF92BF92CF921B
:1006D000DF92EF92FF926B017C010E947E014B0141
:1006E0005C01C114D104E104F104F1F00E947E0127
:1006F000DC01CB0188199909AA09BB09883E9340FE
:10070000A105B10570F321E0C21AD108E108F10892
:1007100088EE880E83E0981EA11CB11CC114D10480
:10072000E104F10419F7DDCFFF90EF90DF90CF9057
:10073000BF90AF909F908F9008951F920F920FB629
:100740000F9211242F933F938F939F93AF93BF9357
:100750008091D1039091D203A091D303B091D4039F
:100760003091D00323E0230F2D3720F40196A11DF3
:10077000B11D05C026E8230F0296A11DB11D2093CF
:10078000D0038093D1039093D203A093D303B0936B
:10079000D4038091D5039091D603A091D703B09153
:1007A000D8030196A11DB11D8093D5039093D60364
:1007B000A093D703B093D803BF91AF919F918F912E
:1007C0003F912F910F900FBE0F901F901895CF92D1
:1007D000DF92EF92FF920F931F93CF93DF93EC0181
:1007E000E42E8E810E94C40260E088850E94C402CB
:1007F000DC80CD8007E010E0F12CB701002E02C0B4
:10080000759567950A94E2F7617077278C2D0E94A1
:10081000C40261E08D2D0E94C40260E08D2D0E9413
:10082000C4020150110948F761E08885DF91CF913A
:100830001F910F91FF90EF90DF90CF900C94C40226
:10084000CF92DF92EF92FF920F931F93CF93DF939C
:1008500000D000D01F92CDB7DEB767FD57C07C0136
:10086000862F90E0603260F0809725E0289FB001ED
:10087000299F700D112468597F4F45E050E00FC04B
:10088000FC013796EE0FFF1FEE0DFF1D0081118159
:100890000115110559F445E050E068E670E0CE011D
:1008A00001960E94C8188E010F5F1F4F680185E0F6
:1008B000C80ED11CF80141918F0161E0C7010E946F
:1008C000E7030C151D05B1F740E061E0C7010E9488
:1008D000E703F701848590E00696628570E00E9448
:1008E0004D158487811115C0258530E02F5F3F4F5E
:1008F000938569E3969F612D1124669570E06F5F83
:100900007F4FC9010E944D15858703C080E090E0AC
:1009100002C081E090E00F900F900F900F900F9029
:10092000DF91CF911F910F91FF90EF90DF90CF90CB
:1009300008951F920F920FB60F9211242F933F9399
:100940004F935F936F937F938F939F93AF93BF93D7
:10095000EF93FF938091B900887F803609F49CC0A3
:1009600068F5883209F45BC090F4803109F454C012
:1009700038F4882309F4F6C0883009F44DC0F6C075
:10098000883109F44CC0803209F45DC0EFC0803476
:1009900009F468C048F4803309F455C0883309F07D
:1009A000E5C080931E04D8C0803509F44FC0883557
:1009B00009F45DC0883409F0D9C0D6C0883909F47B
:1009C000C7C0A8F4883709F467C038F4883609F43A
:1009D00063C0803709F460C0C9C0883809F4B8C062
:1009E000803909F45FC0803809F0C0C05BC0803B2B
:1009F00009F486C038F4803A09F466C0883A09F4EC
:100A00007FC0B4C0803C09F4A7C0883C09F4A4C0EE
:100A1000883B09F48AC0AAC080911B0410C0909141
:100A20001D0480911C04981770F5E0911D0481E06D
:100A30008E0F80931D04F0E0E550FC4F8081809381
:100A4000BB0085EC86C080931E048EC0E0911D041F
:100A500081E08E0F80931D048091BB00F0E0E55093
:100A6000FC4F808390911D0480911C046EC0E09126
:100A70001D0481E08E0F80931D048091BB00F0E087
:100A8000E550FC4F80838091DD0481116DC081E0D1
:100A90008093DC0484EA61C083E08093DE041092DA
:100AA000CF03CFCF8091CF03803208F051C0E091C7
:100AB000CF0381E08E0F8093CF038091BB00F0E0E5
:100AC000E155FC4F8083BDCF85EC8093BC00109234
:100AD000DE048091CF03803230F4E091CF03F0E068
:100AE000E155FC4F10826091CF0370E0E091AD03BF
:100AF000F091AE038FEA93E009951092CF0336C0D0
:100B000084E08093DE041092AC031092AB03E0917A
:100B1000A903F091AA0309958091AB03811105C047
:100B200081E08093AB0310928903E091AC0381E0F4
:100B30008E0F8093AC03F0E0E757FC4F80818093E9
:100B4000BB009091AC038091AB03981708F479CF68
:100B500085E88093BC000AC085EC8093BC001092AD
:100B6000DE0404C010921E040E94A301FF91EF91C5
:100B7000BF91AF919F918F917F916F915F914F91B5
:100B80003F912F910F900FBE0F901F901895CF930C
:100B9000DF9368E672E08FE394E00E947C0C84E7C8
:100BA00092E00E94D00983E892E00E94D00962E0BE
:100BB00080E00E94D5098FE192E00E94D0090E9456
:100BC0007809C3E4D5E0688170E080E090E04AE015
:100BD0000E94260A83E292E00E94D0090E947809CE
:100BE000698170E080E090E04AE00E94260A83E29A
:100BF00092E00E94D0090E9478096A8170E080E04A
:100C000090E04AE00E94260A63E080E00E94D50955
:100C100087E995E00E94FA0965E080E00E94D50925
:100C20008EE892E0DF91CF910C94D009CF92DF92C1
:100C3000EF92FF920F931F93CF93DF936B017C0191
:100C40000E94030A61E080E00E94D5098DE992E0EC
:100C50000E94D00962E080E00E94D50984EA92E017
:100C60000E94D00963E080E00E94D50980EB92E009
:100C70000E94D00942E0C701B6010E94970A64EBC6
:100C800072E085EF94E00E947C0C65E080E00E94B9
:100C9000D50987EB92E00E94D00985E10E944C03C0
:100CA000EC0184E10E944C038C0164EF71E080E070
:100CB00090E00E946303C33583E0D8079CF020E0F6
:100CC00030E040E050E4C701B6010E94D11887FF30
:100CD00020C02DEC3CEC4CE45EE3C701B6010E9461
:100CE0009E1515C0C639D1053CF52DEC3CEC4CECFD
:100CF0005EE3C701B6010E94B216181654F42DEC3B
:100D00003CEC4CE45EE3C701B6010E949D156B010B
:100D10007C0163E080E00E94D50980EB92E00E94B4
:100D2000D00942E0C701B6010E94970A64EB72E065
:100D300085EF94E00E947C0C023513400CF4ADCF9B
:100D400061E080E00E94D5098DE992E00E94D0091F
:100D500062E080E00E94D50984EA92E00E94D00916
:100D600063E080E00E94D50985EC92E00E94D00902
:100D700042E0C701B6010E94970A64EB72E085EF7A
:100D800094E00E947C0C60ED77E080E090E00E94AF
:100D90006303C701B601DF91CF911F910F91FF90BF
:100DA000EF90DF90CF900895CF92DF92EF92FF9275
:100DB0000F931F93CF93DF93EC018B010E94030AE3
:100DC00061E080E00E94D509C8010E94FA0962E052
:100DD00080E00E94D5098DEC92E00E94D00963E08A
:100DE00080E00E94D5098DEB91E00E94D009CE01F0
:100DF0000E94690A8BED92E00E94D00965E080E0D4
:100E00000E94D50987EB92E00E94D00985E10E94FB
:100E10004C037C0184E10E944C036C0164EF71E09F
:100E200080E090E00E94630383E5E81683E0F80623
:100E30002CF0C837D10554F42F9608C086E9E8167F
:100E4000F10474F4C031D1050CF02F9763E081E117
:100E50000E94D509CE010E94690A82EB92E0D4CFAC
:100E600082E5C81683E0D8068CF261E080E00E943B
:100E7000D509C8010E94FA0962E080E00E94D50904
:100E80008DEC92E00E94D00963E080E00E94D509D9
:100E900085EC92E00E94D009CE010E94690A8CED97
:100EA00092E00E94D00960ED77E080E090E00E943F
:100EB0006303CE01DF91CF911F910F91FF90EF90CF
:100EC000DF90CF900895CF92DF92FF920F931F9300
:100ED000CF93DF938C016B010E94030A60E080E0F6
:100EE0000E94D50961EE72E085EF94E00E947C0CCF
:100EF00061E080E00E94D50986E0809FE001819F4B
:100F0000D00D1124C959DA4F00E010E08C819D8189
:100F1000892BD1F0E881F98180818823A9F0FF2411
:100F2000F394F00E0C151D0541F46F2D80E00E9426
:100F3000D5098BE791E00E94D0096F2D87E00E94D0
:100F4000D509CE010E94FA090F5F1F4F2C9604307D
:100F50001105E1F665E080E00E94D5098CEE92E093
:100F6000DF91CF911F910F91FF90DF90CF900C9464
:100F7000D009CF92DF92EF92FF920F931F93CF93FE
:100F8000DF937C018AEF92E00E94F40810927B03C9
:100F900010927A0310927D0310927C0310927F03CB
:100FA00010927E03109281031092800300E010E003
:100FB0000E151F0594F561E087E00E94C40268EBFE
:100FC0007BE080E090E00E9463038CE1C82E81E02A
:100FD000D82ECAE7D3E0F6018081F2E0CF0ED11C13
:100FE0000E944C0328813981820F931F8993999322
:100FF00083E0C238D80779F760E087E00E94C40236
:101000000E94030A0E94C70568EE73E080E090E04A
:101010000E9463030F5F1F4FCBCFEAE7F3E08081AD
:101020009181B7010E944D156193719393E0E2386D
:10103000F907A9F788E392E0DF91CF911F910F9113
:10104000FF90EF90DF90CF900C94F408E091F504BE
:10105000F091F6040190F081E02D682F85EF94E087
:101060000994FC01918D828D981761F0828DDF01CA
:10107000A80FB11D5D968C91928D9F5F9F73928F8B
:1010800090E008958FEF9FEF0895FC01918D828D80
:10109000981731F0828DE80FF11D858D90E008954D
:1010A0008FEF9FEF0895FC01918D228D892F90E0A5
:1010B000805C9F4F821B91098F739927089580E070
:1010C00090E0892B29F00E94600281110C940000AD
:1010D00008959091DE049111FCCF613208F060E236
:1010E00091E09093DE049093DD042FEF20931E0493
:1010F00010921D04260F20931C0490931B049091C2
:101100001B04880F892B80931B048091DC048130A1
:1011100061F41092DC0480911B048093BB008091E9
:10112000BC0083FDF8CF85EC01C085EE8093BC0048
:101130008091DE048130E1F380911D04861710F464
:1011400060911D04ABEFB3E02FE134E0F9018E2F85
:10115000821B861718F48D918193F9CF1092E204C7
:101160006093E104862F0895EF92FF920F931F93EF
:10117000CF93DF93EC017B018A01888199810097ED
:1011800029F02A813B8124173507F8F4B8016F5FF5
:101190007F4F0E94E917009759F0998388831B833A
:1011A0000A832C813D81232B81F4FC0110820DC028
:1011B00088819981009711F00E9451171982188235
:1011C0001D821C821B821A8207C01D830C83B701FB
:1011D000888199810E94C118CE01DF91CF911F9122
:1011E0000F91FF90EF900895009771F0FC0101902E
:1011F0000020E9F73197AF01481B590BBC0187E983
:1012000095E00E94B40814C08091970590919805CC
:10121000009711F00E9451171092980510929705AF
:1012200010929C0510929B0510929A0510929905B8
:1012300087E995E008952091DF049091FA03213227
:1012400008F04AC08091DE048111FCCF32E0309377
:10125000DE0431E03093DD043FEF30931E04109242
:101260001D0420931C04AAEDB3E04BEF53E0FA01F8
:101270003E2F341B321718F43D913193F9CF109261
:101280001B0420911B04990F922B90931B049091A7
:10129000DC04913061F41092DC0490911B04909373
:1012A000BB009091BC0093FDF8CF95EC01C095EE8A
:1012B0009093BC009091DE049230E1F390911E0473
:1012C0009F3F79F080911E04803241F080911E048E
:1012D000803331F084E005C081E003C082E001C0CA
:1012E00083E01092E0041092DF041092D903089575
:1012F000CF93DF93C3E4D5E08AA191E09093D90323
:101300008093FA031092E0041092DF0460E083EE11
:1013100094E00E9431020E941B0965E070E08AA1FE
:101320009BA10E94690883EE94E00E94E5018B87EF
:1013300083EE94E00E94E5018C8783EE94E00E94A6
:10134000E501982F9695969596959E70292F220FD8
:10135000220F920F8F70890F8A8383EE94E00E9490
:10136000E501982F9695969596959E70292F220FB8
:10137000220F920F8F70890F898383EE94E00E9471
:10138000E501982F9695969596959670292F220FA0
:10139000220F920F8F70890F8883DF91CF9108956C
:1013A000BC0185EF94E00C94BB0CCF93DF93262F08
:1013B000C5EFD4E06A850E944115492F9C87822F92
:1013C00090E02B8569E3269F612D1124669570E0DE
:1013D0006F5F7F4F0E944D158D87406860E0CE01A2
:1013E0000E94E7034D85406460E0CE01DF91CF911C
:1013F0000C94E703FC01448155816081718185EF84
:1014000094E00C94900CCF93DF9360E080E00E9416
:10141000D509C0E0D0E09091FF0480910005869549
:1014200086958695989FC0011124C817D90740F466
:1014300040E061E085EF94E00E94E7032196EBCF66
:1014400060E080E0DF91CF910C94D5098F929F925C
:10145000AF92BF920F931F93CF93DF93CDB7DEB7B9
:10146000A1970FB6F894DEBF0FBECDBF19A24230D0
:1014700008F44AE08E010F5D1F4F842E912CA12CA1
:10148000B12CA50194010E946115E62FB901CA0192
:1014900001501109EA3014F4E05D01C0E95CD801A3
:1014A000EC93232B242B252B61F7B80185EF94E0D7
:1014B0000E94BB0CA1960FB6F894DEBF0FBECDBF45
:1014C000DF91CF911F910F91BF90AF909F908F9020
:1014D0000895CF92DF92EF92FF92CF93DF936C014A
:1014E000990FEE08FF08F7FE17C08DE20E9426084C
:1014F000EC0166277727CB016C197D098E099F09BE
:101500004AE00E94260A8C0F9D1FDF91CF91FF9029
:10151000EF90DF90CF9008954AE0C701B601DF91C8
:10152000CF91FF90EF90DF90CF900C94260A4F92CE
:101530005F926F927F928F929F92AF92BF92CF9263
:10154000DF92EF92FF926B017C01B42E9B01AC0104
:101550000E94B716882319F06BE673E027C02601B6
:101560003701E89477F82FEF3FEF4FE75FE7C301CC
:10157000B2010E94B71681110DC02FEF3FEF4FE768
:101580005FE7C301B2010E94D11818161CF46FE680
:1015900073E00CC02FEF3FEF4FE75FE4C701B601E8
:1015A0000E94B216181694F463E773E085EF94E096
:1015B000FF90EF90DF90CF90BF90AF909F908F9073
:1015C0007F906F905F904F900C94BB0C2FEF3FEF8C
:1015D0004FE75FECC701B6010E94D11887FDE4CF49
:1015E00020E030E0A901C701B6010E94D11887FFB1
:1015F00009C08DE20E9426084C01F7FAF094F7F832
:10160000F09402C0812C912CA12C60E070E080E06D
:101610009FE3AB1441F020E030E040E251E40E944F
:101620000A16A394F6CF9B01AC01C701B6010E9434
:101630009E152B013C010E9483166B017C010E94C8
:10164000D6189B01AC01C301B2010E949D152B016C
:101650003C014AE0C701B6010E94260A7C01E80C61
:10166000F91CBB2029F08EE20E942608E80EF91E24
:10167000DB2CDD2021F120E030E040E251E4C30129
:10168000B2010E9437192B013C010E9483164B01C5
:10169000A12CB12C4AE0C501B4010E94260AE80E33
:1016A000F91EC501B4010E94D6189B01AC01C3010B
:1016B000B2010E949D152B013C01DA94DACFC701DB
:1016C000FF90EF90DF90CF90BF90AF909F908F9062
:1016D0007F906F905F904F900895CF936091020537
:1016E00080E00E94D509C0E08091FF04C81740F453
:1016F00040E061E085EF94E00E94E703CF5FF4CF24
:101700006091020580E0CF910C94D5098091650528
:1017100091E09093D9038093FA031092E004109221
:10172000DF0465E083EE94E00E9431020E941B0911
:1017300064E070E080916505909166050E946908FB
:1017400083EE94E00E94E501982F969596959695E4
:101750009670292F220F220F920F8F70890F80937E
:10176000460583EE94E00E94E5018770809347056B
:1017700083EE94E00E94E501982F991F9927991F05
:101780009093500584FB992790F9990F292F220FE8
:10179000220F920F8F70890F8093480583EE94E09B
:1017A0000E94E501982F92959F708F702AE0929F7A
:1017B000800D1124809349050895FC01848DDF017B
:1017C000A80FB11DA35ABF4F2C91848D90E00196B4
:1017D0008F739927848FA689B7892C93A089B189A3
:1017E0008C9180648C93938D848D981306C00288AD
:1017F000F389E02D80818F7D80830895EF92FF92A1
:101800000F931F93CF93DF93EC0181E0888F9B8D23
:101810008C8D981305C0E889F989808185FD24C0E5
:10182000F62E0B8D10E00F5F1F4F0F731127E02E68
:101830008C8DE8120CC00FB607FCFACFE889F98945
:10184000808185FFF5CFCE010E94DD0BF1CF8B8D1E
:10185000FE01E80FF11DE35AFF4FF0820B8FEA897A
:10186000FB898081806207C0EE89FF896083E889F7
:10187000F98980818064808381E090E0DF91CF915D
:101880001F910F91FF90EF900895CF93DF93EC019C
:10189000888D8823C9F0EA89FB89808185FD05C090
:1018A000A889B9898C9186FD0FC00FB607FCF5CFCA
:1018B000808185FFF2CFA889B9898C9185FFEDCF12
:1018C000CE010E94DD0BE7CFDF91CF910895FC019F
:1018D00011821082138212821582148261157105A1
:1018E00051F0FB0101900020E9F73197AF01461B51
:1018F000570B0C94B40808950F931F93CF93DF9365
:10190000EC010E94BB0C8C0167E773E0CE010E94E2
:10191000BB0C800F911FDF91CF911F910F91089504
:10192000CF92DF92EF92FF920F931F93CF93DF93AB
:101930006C017A018B01C0E0D0E0CE15DF0589F0A3
:10194000D8016D918D01D601ED91FC910190F0814E
:10195000E02DC6010995892B11F47E0102C0219664
:10196000ECCFC701DF91CF911F910F91FF90EF90C6
:10197000DF90CF9008956115710579F0FB0101901A
:101980000020E9F73197AF01461B570BDC01ED91C1
:10199000FC910280F381E02D099480E090E00895AD
:1019A000CF93DF93CDB7DEB72A970FB6F894DEBF9B
:1019B0000FBECDBF789484B5826084BD84B581604C
:1019C00084BD85B5826085BD85B5816085BD80910A
:1019D0006E00816080936E00109281008091810082
:1019E000826080938100809181008160809381007A
:1019F000809180008160809380008091B10084603C
:101A00008093B1008091B00081608093B00080919C
:101A10007A00846080937A0080917A00826080935B
:101A20007A0080917A00816080937A0080917A00B8
:101A3000806880937A001092C10060E08FE00E947D
:101A4000100360E080E10E94100360E081E10E94E9
:101A5000100360E08EE00E94100361E083E00E94CA
:101A6000100361E084E00E94100361E085E00E94C1
:101A7000100361E086E00E94100361E082E00E94B2
:101A8000100361E087E00E94100360E087E00E949D
:101A9000C40261E08DE00E94100360E084E10E94D6
:101AA000100360E085E10E9410036091840370914F
:101AB000850380918203909183030E94630784E5EC
:101AC0008093FF0480E3809300051092FE0410923F
:101AD00001051092020580E4E3E0F5E0DF011D92CC
:101AE0008A95E9F761E08091F9040E94100361E0B2
:101AF0008091FA040E94100361E08091FB040E942F
:101B0000100361E08091FC040E94100361E0809169
:101B1000FD040E94100361E08091FC040E94C40255
:101B200061E08091FD040E94C40260E08091FC04A9
:101B30000E94C40264E670E080E090E00E946303CB
:101B400061E08091FC040E94C40241E260E085EF04
:101B500094E00E94E70343E160E085EF94E00E9497
:101B6000E7038091FE04813041F440EE60E085EFB0
:101B700094E00E94E70345E001C042EC60E085EF9D
:101B800094E00E94E70340E260E085EF94E00E9469
:101B9000E70349E060E085EF94E00E94E7030E94DC
:101BA000030A48E060E085EF94E00E94E7034CE020
:101BB00060E085EF94E00E94E70364E670E080E077
:101BC00090E00E94630340E860E085EF94E00E94AB
:101BD000E70340E460E085EF94E00E94E7030E94A1
:101BE000C7050E94780980914305873129F48091C7
:101BF0008803882309F4AEC50E94780980914305C3
:101C0000811145C000911201109113010E947809C1
:101C10002091430530E0C8016CE370E00E944D154F
:101C20008C0126173707A9F40E94780920914405F2
:101C300030E0201731076CF065E272E08FE394E04A
:101C40000E947C0C60E086E00E94C40288E392E07F
:101C50000CC061E086E00E94C40267E472E08FE39A
:101C600094E00E947C0C89E592E00E94F408809147
:101C70001201909113016CE370E00E944D15892BC5
:101C800011F06F5F7F4F70938703609386030E940C
:101C900078092091430530E0809186039091870375
:101CA00028173907E9F084E10E944C038C0185E193
:101CB0000E944C037C0164EF71E080E090E00E94A0
:101CC0006303033513400CF425C4609184037091C1
:101CD000850380918203909183030E9463075CC017
:101CE000E0911001409111018E2F942F6CE370E070
:101CF0000E944D155C011B01220E331E8E2F942F66
:101D000068E770E00E944D15CB01820F931F9A8700
:101D100089872E2F342F37FF02C02F5F3F4FC90115
:101D2000959587956CE370E00E944D156C0130E04D
:101D3000832E31E0932E2AE733E038872F8304E2A5
:101D400011E0D4016D917D918D919D914D010E9485
:101D50007C162B013C01EF81F885E190F190F8872A
:101D6000EF832AE832E0249DC001259D900D349D2B
:101D7000900D11248E159F050CF4F4C4A2ECB1E073
:101D8000A49DC001A59D900DB49D900D11248E15AC
:101D90009F050CF411C537C584E10E944C037C01FA
:101DA00085E10E944C038C0164EF71E080E090E0DB
:101DB0000E946303809182039091830323E5E216DE
:101DC00023E0F2060CF460C3009709F0CAC28091C8
:101DD000840390918503892B29F562E672E0CE0198
:101DE00001960E94670CBE016F5F7F4F80911201C8
:101DF000909113010E94D4069093130180931201D5
:101E000089819A810E945117109285031092840350
:101E1000109283031092820360E070E080E090E013
:101E20000E9463078091840390918503019729F5AF
:101E30006AE671E0CE0101960E94670CBE016F5FF9
:101E40007F4F80911001909111010E94D4069093D0
:101E500011018093100189819A810E94511710927B
:101E6000850310928403109283031092820360E032
:101E700070E080E090E00E9463078091840390917D
:101E80008503029789F41092850310928403809150
:101E9000820390918303019690938303809382033E
:101EA00060E070E00E946307809184039091850355
:101EB000039709F024C310928303109282031092B7
:101EC0008503109284030E94860BC0904905D12C93
:101ED0000E94860B80904805912C0E94860BA09052
:101EE0004605B12C0E9478090091430510E00E943C
:101EF0007809E0904405F12C0E94030A60E08FE02D
:101F00000E94D50981E791E00E94D00962E080E05B
:101F10000E94D5098BE791E00E94D009C5010E947B
:101F2000690A8DE791E00E94D009C4010E94690A04
:101F30008DE791E00E94D009C6010E94690A63E022
:101F400080E00E94D509C8010E94690A83E292E0FC
:101F50000E94D009C7010E94690A65E080E00E94E2
:101F6000D5098FE791E00E94D00985E10E944C03DA
:101F70002C0184E10E944C033C0164EF71E080E09D
:101F800090E00E946303209082033090830333E546
:101F9000431633E053060CF441C082E028163104A6
:101FA00091F044F42114310401F1A1E02A16310426
:101FB00099F073C0B3E02B16310401F1E4E02E1662
:101FC000310419F16AC0F3E6CF16D1040CF065C0F4
:101FD0002FEFC21AD20A61C03CE0831691040CF0C4
:101FE0005CC08FEF881A980A58C09FE1A916B10407
:101FF0000CF053C0AFEFAA1ABA0A4FC0073111054F
:102000000CF04BC00F5F1F4F48C0BCE3EB16F10450
:102010000CF043C0EFEFEE1AFE0A3FC0F6E94F1690
:1020200051040CF08FC022E02216310491F044F4E8
:1020300021143104F1F081E02816310491F02DC013
:1020400093E029163104E9F0A4E02A163104F9F0EE
:1020500024C0B4E1CB16D10404F1E1E0CE1AD108DA
:102060001CC0F2E08F169104C4F021E0821A91089E
:1020700014C032E0A316B10484F081E0A81AB108BC
:102080000CC00115110549F00150110906C0E114F9
:10209000F10419F091E0E91AF10862E080E00E9491
:1020A000D5090E946D0B232821F48BE791E00E9453
:1020B000D009C5010E94690A8DE791E00E94D0090C
:1020C0008091820390918303019721F48BE791E043
:1020D0000E94D009C4010E94690A8DE791E00E9424
:1020E000D0098091820390918303029721F48BE7BA
:1020F00091E00E94D009C6010E94690A63E080E075
:102100000E94D5090E946D0B8091820390918303F8
:10211000039721F48BE791E00E94D009C8010E9447
:10212000690A83E292E00E94D00980918203909133
:102130008303049721F48BE791E00E94D009C70143
:102140000E94690A8091820390918303A3E56A1635
:10215000A3E07A062CF03C01BFEF6B1A7B0A09C0A2
:10216000E6E96E1671040CF05DC03C01F1E06F1AF7
:102170007108709283036092820362E080E00E94A3
:10218000D5090E946D0B672821F48BE791E00E942E
:10219000D009C5010E94690A8DE791E00E94D0092B
:1021A0008091820390918303019721F48BE791E062
:1021B0000E94D009C4010E94690A8DE791E00E9443
:1021C000D0098091820390918303029721F48BE7D9
:1021D00091E00E94D009C6010E94690A63E080E094
:1021E0000E94D5090E946D0B809182039091830318
:1021F000039721F48BE791E00E94D009C8010E9467
:10220000690A83E292E00E94D00980918203909152
:102210008303049721F48BE791E00E94D009C70162
:102220000E94690A809182039091830305970CF4C0
:102230009CCE109283031092820310928503109219
:102240008403882D6AE00E94411520E1829F900D51
:1022500011249F77909348058091650531E0309374
:10226000D9038093FA031092E0041092DF0465E032
:1022700083EE94E00E9431028A2D6AE00E944115AB
:10228000692FA0E18A9F600D112483EE94E00E94E3
:10229000310261E083EE94E00E94310260914805D2
:1022A00083EE94E00E9431028C2D6AE00E94411579
:1022B000692FB0E18B9F600D112483EE94E00E94A2
:1022C00031020E941B0980916505E1E0E093D9038A
:1022D0008093FA031092E0041092DF0462E083EE30
:1022E00094E00E94310260E083EE94E00E943102AB
:1022F0008E2D6AE00E944115692FF0E18F9F600DDD
:10230000112483EE94E00E943102802F6AE00E9443
:102310004115692F20E1829F600D112483EE94E026
:102320000E9431020E941B090E94030A64E080E0BF
:102330000E94D5098DE891E00E94D00968EE73E013
:1023400080E090E00E946303109285031092840362
:10235000109283031092820360E070E080E090E0CE
:10236000CCC0019709F0CBC0809184039091850384
:10237000892BF1F4609100017091010180910201BB
:10238000909103010E941606609300017093010171
:1023900080930201909303011092850310928403AD
:1023A00060E070E080918203909183030E94630754
:1023B00080918403909185030197F1F46091040169
:1023C0007091050180910601909107010E94160607
:1023D00060930401709305018093060190930701B7
:1023E000109285031092840360E070E08091820374
:1023F000909183030E9463078091840390918503E9
:102400000297F1F4609108017091090180910A012D
:1024100090910B010E9416066093080170930901C8
:1024200080930A0190930B0110928503109284030C
:1024300060E070E080918203909183030E946307C3
:102440008091840390918503039709F058C06091AF
:102450000C0170910D0180910E0190910F010E946D
:10246000160660930C0170930D0180930E019093FA
:102470000F01109285031092840360E070E0809158
:1024800082039091830339C036E9E316F104A4F482
:102490000197909383038093820310928503109297
:1024A000840397FD04C060E070E00E9463070E940F
:1024B000030A0E94C70523C00639110554F4209170
:1024C000840330918503121613069CF421503109C0
:1024D0000CC0033513409CF0209184033091850398
:1024E0002330310534F42F5F3F4F30938503209321
:1024F000840360918403709185030E946307809137
:1025000082039091830397FF47CC1092830310922C
:102510008203DBC0B6E9EB16F1040CF079C00E942F
:10252000030A8CE991E00E94D00961E080E00E94FA
:10253000D5098AEA91E00E94D00980911201909118
:1025400013010E94690A84EF91E00E94D00962E0C1
:1025500080E00E94D50985EB91E00E94D00980912E
:102560001001909111010E94690A84EF91E00E948C
:10257000D00963E080E00E94D50981EC91E00E94DF
:10258000D00964E080E00E94D5098FEC91E00E94C0
:10259000D009609100017091010180910201909138
:1025A000030142E00E94970A83ED91E00E94D00966
:1025B00060910401709105018091060190910701DD
:1025C00042E00E94970A87ED91E00E94D009609155
:1025D00008017091090180910A0190910B0142E07C
:1025E0000E94970A8BED91E00E94D00960910C0146
:1025F00070910D0180910E0190910F0142E00E94B7
:10260000970A68E873E180E090E00E9463035DC090
:10261000E3E5EE16E3E0FE060CF45BC00E94030A5D
:102620008FED91E00E94D00961E080E00E94D50921
:102630008BEE91E00E94D00962E080E00E94D50913
:1026400086EF91E00E94D00963E080E00E94D50906
:1026500082E090E00E94B90760ED77E080E090E0D2
:102660000E9463030E94030A81E092E00E94D00965
:102670000AE713E0E12CF12C61E06E0D80E00E948E
:10268000D50987E092E00E94D009C7010E94690A3B
:1026900081ED91E00E94D009D8018D919D918D012D
:1026A0000E94690ABFEFEB1AFB0AE4E0EE16F104A0
:1026B00019F764EC79E080E090E00E9463036FE03A
:1026C00072E08FE394E00E947C0C0E94030A0E9457
:1026D000C70564EF71E080E090E00E94630362E070
:1026E00080E00E94D5090E946D0B8FE192E00E946C
:1026F000D0090E9478096091430570E080E090E085
:102700004AE00E94260A83E292E00E94D0090E94D9
:1027100078096091440570E080E090E04AE00E9412
:10272000260A83E292E00E94D0090E947809609113
:10273000450570E080E090E04AE00E94260A63E0F0
:1027400080E00E94D50987E995E00E94FA090E947D
:102750005F0847CA86E090E00E94B907F1E0F09375
:1027600088034ACA0E9478098091430590E0821547
:10277000930581F40E9478098091440590E08A15C0
:102780009B0544F060E0D8018C910E94C40288E36C
:1027900092E007C061E0F80180810E94C40282E6F5
:1027A00091E00E94F4080E5F1F4FF0E18F16F1E0F8
:1027B0009F0609F0C6CA77CA0E947809809143052E
:1027C00090E029853A858217930741F40E947809A1
:1027D0008091440590E08C159D0554F461E0F8016A
:1027E00080810E94C40282E691E00E94F4080BC03E
:1027F00060E0D8018C910E94C40288E392E00E94BC
:10280000F4081092880322EC31E0249DC001259D3C
:10281000900D349D900D11248E159F0524F260E0DB
:10282000F80180810E94C40288E392E00E94F408CB
:1028300010928803B8CFCF93DF93C7E9D5E02697EE
:10284000888199810E94511785E0C736D807B9F76A
:102850008091970590919805DF91CF910C94511735
:10286000109242041092410488EE93E0A0E0B0E0A0
:102870008093430490934404A0934504B09346048A
:1028800026E331E03093400420933F0425EC30E010
:1028900030934C0420934B0424EC30E030934E04EE
:1028A00020934D0420EC30E03093500420934F04EB
:1028B00021EC30E0309352042093510422EC30E0BC
:1028C000309354042093530426EC30E030935604A4
:1028D00020935504109258041092590410925A04EF
:1028E00010925B041092E6041092E5048093E704D2
:1028F0009093E804A093E904B093EA0486E491E09D
:102900009093E4048093E30468E372E087E995E040
:102910000E94670C69E073E087E695E00E94670C0F
:1029200066E173E08DE695E00E94670C61E273E07A
:1029300083E795E00E94670C6FE273E089E795E01A
:102940000E94670C6AE373E08FE795E00E94670CD2
:1029500068E473E085E895E00E94670C63E573E046
:102960008BE895E00E94670C60E673E081E995E0F2
:102970000E94670C1092E2041092E1041092E004AD
:102980001092DF041092DE0481E08093DD04109247
:10299000DC0461E082E10E94C40261E083E10E9404
:1029A000C4028091B9008E7F8093B9008091B900F4
:1029B0008D7F8093B90088E48093B80085E480938C
:1029C000BC0081E590E090936605809365051092C8
:1029D000F8041092F70486E591E09093F604809352
:1029E000F50488E08093F90489E08093FA048AE092
:1029F0008093FB048CE08093FC048BE08093FD04C7
:102A000080E18093F4048CE18093F30486E080936A
:102A1000F20420E081E697E9E3E9FEEF31E0422F9E
:102A2000437009F030E061E0620F432F50E0DA01BB
:102A3000A359BE4F8A179B0738F09F01241B350B03
:102A4000820F931F262FEACF2093EF0421E0E22F7D
:102A5000F0E0E956FD4FE491332319F0223009F4F8
:102A6000EF5FF0E041E0420F8E179F0720F08E1BD2
:102A70009F0B242FECCF2093F0048F5F8093F10401
:102A80000895991B79E004C0991F961708F0961BCA
:102A9000881F7A95C9F78095089597FB072E16F43D
:102AA000009407D077FD09D00E94831507FC05D05C
:102AB0003EF4909581959F4F0895709561957F4F55
:102AC0000895A1E21A2EAA1BBB1BFD010DC0AA1F6F
:102AD000BB1FEE1FFF1FA217B307E407F50720F087
:102AE000A21BB30BE40BF50B661F771F881F991F02
:102AF0001A9469F760957095809590959B01AC014B
:102B0000BD01CF010895AA1BBB1B51E107C0AA1F3D
:102B1000BB1FA617B70710F0A61BB70B881F991F7E
:102B20005A95A9F780959095BC01CD010895EE0FB7
:102B3000FF1F0590F491E02D09945058BB27AA2758
:102B40000E94B5150C94BB190E94AD1938F00E9473
:102B5000B41920F039F49F3F19F426F40C94AA1903
:102B60000EF4E095E7FB0C94A419E92F0E94CC1910
:102B700058F3BA17620773078407950720F079F4B2
:102B8000A6F50C94EE190EF4E0950B2EBA2FA02D9D
:102B90000B01B90190010C01CA01A0011124FF270A
:102BA000591B99F0593F50F4503E68F11A16F04005
:102BB000A22F232F342F4427585FF3CF4695379504
:102BC0002795A795F0405395C9F77EF41F16BA0BC9
:102BD000620B730B840BBAF09150A1F0FF0FBB1F77
:102BE000661F771F881FC2F70EC0BA0F621F731FC0
:102BF000841F48F4879577956795B795F7959E3F1D
:102C000008F0B0CF9395880F08F09927EE0F9795AD
:102C1000879508950E941E160C94BB190E94B41942
:102C200058F00E94AD1940F029F45F3F29F00C9450
:102C3000A41951110C94EF190C94AA190E94CC19E3
:102C400068F39923B1F3552391F3951B550BBB27DB
:102C5000AA2762177307840738F09F5F5F4F220F20
:102C6000331F441FAA1FA9F335D00E2E3AF0E0E817
:102C700032D091505040E695001CCAF72BD0FE2F61
:102C800029D0660F771F881FBB1F261737074807F5
:102C9000AB07B0E809F0BB0B802DBF01FF279358AD
:102CA0005F4F3AF09E3F510578F00C94A4190C94B4
:102CB000EF195F3FE4F3983ED4F3869577956795D7
:102CC000B795F7959F5FC9F7880F911D96958795E2
:102CD00097F90895E1E0660F771F881FBB1F621701
:102CE00073078407BA0720F0621B730B840BBA0BBF
:102CF000EE1F88F7E09508950E9483166894B1113D
:102D00000C94EF1908950E94D41988F09F5798F0F9
:102D1000B92F9927B751B0F0E1F0660F771F881FE0
:102D2000991F1AF0BA95C9F714C0B13091F00E94FA
:102D3000EE19B1E008950C94EE19672F782F8827CB
:102D4000B85F39F0B93FCCF3869577956795B39521
:102D5000D9F73EF490958095709561957F4F8F4F90
:102D60009F4F08950E94131908F48FEF08950E9451
:102D70001319880B990B0895CF93DF938230910537
:102D800010F482E090E0E0919F05F091A00520E032
:102D900030E0C0E0D0E0309711F140815181481718
:102DA0005907C0F04817590761F482819381209731
:102DB00019F09B838A832BC09093A00580939F0575
:102DC00026C02115310519F04217530718F49A014E
:102DD000BE01DF01EF010280F381E02DDCCF211580
:102DE000310509F1281B390B2430310590F4129676
:102DF0008D919C9113976115710521F0FB019383CF
:102E0000828304C09093A00580939F05FD013296B4
:102E100044C0FD01E20FF31F8193919322503109C9
:102E20002D933C933AC020919D0530919E05232B14
:102E300041F4209116013091170130939E052093A3
:102E40009D0520911401309115012115310541F4A2
:102E50002DB73EB74091180150911901241B350B35
:102E6000E0919D05F0919E05E217F307A0F42E1B5B
:102E70003F0B2817390778F0AC014E5F5F4F2417DE
:102E8000350748F04E0F5F1F50939E0540939D05F8
:102E90008193919302C0E0E0F0E0CF01DF91CF9108
:102EA00008950F931F93CF93DF93009709F48CC07D
:102EB000FC0132971382128200919F051091A005A8
:102EC0000115110581F420813181820F931F20911A
:102ED0009D0530919E052817390779F5F0939E05D9
:102EE000E0939D0571C0D80140E050E0AE17BF07E8
:102EF00050F412962D913C911397AD012115310597
:102F000009F1D901F3CF9D01DA0133832283608176
:102F10007181860F971F8217930769F4EC0128814E
:102F20003981260F371F2E5F3F4F318320838A81DF
:102F30009B8193838283452B29F4F093A005E09332
:102F40009F0542C01396FC93EE931297ED014991B1
:102F500059919E01240F351FE217F30771F4808108
:102F60009181840F951F029611969C938E93828176
:102F7000938113969C938E931297E0E0F0E0D80132
:102F800012968D919C911397009719F0F8018C017E
:102F9000F6CF8D919C9198012E5F3F4F820F931F2A
:102FA00020919D0530919E052817390769F43097C7
:102FB00029F41092A00510929F0502C0138212827C
:102FC00010939E0500939D05DF91CF911F910F9166
:102FD0000895A0E0B0E0EFEEF7E10C94F919EC01F0
:102FE000009721F4CB010E94BC16B8C0FC01E60F8B
:102FF000F71F9C0122503109E217F30708F4ACC017
:10300000D9010D911C91119706171707B0F00530E3
:10301000110508F49FC0C80104978617970708F4A4
:1030200099C002501109061B170B019311936D9360
:103030007C93CF010E9451178DC05B01A01AB10A89
:103040004C01800E911EA0919F05B091A00540E01B
:1030500050E0E12CF12C109709F44AC0A815B905ED
:10306000D1F56D907C901197630182E0C80ED11C60
:10307000CA14DB0480F1A3014A195B096A0182E0EA
:10308000C80ED11C1296BC9012971396AC91B5E065
:10309000CB16D10440F0B282A38351834083D9017F
:1030A0006D937C930AC00E5F1F4FC301800F911F69
:1030B000F90191838083EB2DFA2FE114F10431F0B3
:1030C000D7011396FC93EE93129744C0F093A0059A
:1030D000E0939F053FC08D919C9111974817590728
:1030E00008F4AC017D0112960D90BC91A02DB3CFD8
:1030F00080919D0590919E0588159905E1F44617EC
:103100005707C8F48091140190911501009741F47C
:103110008DB79EB74091180150911901841B950BF2
:10312000E817F907C8F4F0939E05E0939D05F901AF
:10313000718360830FC0CB010E94BC167C01009795
:1031400059F0A801BE010E94B818CE010E94511783
:10315000C70104C0CE0102C080E090E0CDB7DEB769
:10316000EEE00C94151A81E090E0F8940C942C1A7F
:10317000FB01DC0102C001900D9241505040D8F794
:103180000895FB01DC0101900D920020E1F7089504
:10319000FB01DC0102C005900D9241505040D8F770
:1031A00008950E94131908F481E00895E89409C075
:1031B00097FB3EF490958095709561957F4F8F4F6A
:1031C0009F4F9923A9F0F92F96E9BB279395F69580
:1031D000879577956795B795F111F8CFFAF4BB0FFE
:1031E00011F460FF1BC06F5F7F4F8F4F9F4F16C062
:1031F000882311F096E911C0772321F09EE8872FEC
:10320000762F05C0662371F096E8862F70E060E0A7
:103210002AF09A95660F771F881FDAF7880F969520
:10322000879597F90895990F0008550FAA0BE0E8C4
:10323000FEEF16161706E807F907C0F01216130678
:10324000E407F50798F0621B730B840B950B39F4B8
:103250000A2661F0232B242B252B21F408950A261E
:1032600009F4A140A6958FEF811D811D08950E944C
:103270004A190C94BB190E94AD1938F00E94B41978
:1032800020F0952311F00C94A4190C94AA19112480
:103290000C94EF190E94CC1970F3959FC1F3950F10
:1032A00050E0551F629FF001729FBB27F00DB11DCA
:1032B000639FAA27F00DB11DAA1F649F6627B00D5A
:1032C000A11D661F829F2227B00DA11D621F739F43
:1032D000B00DA11D621F839FA00D611D221F749F51
:1032E0003327A00D611D231F849F600D211D822F98
:1032F000762F6A2F11249F5750409AF0F1F08823BF
:103300004AF0EE0FFF1FBB1F661F771F881F9150EB
:103310005040A9F79E3F510580F00C94A4190C94DD
:10332000EF195F3FE4F3983ED4F386957795679560
:10333000B795F795E7959F5FC1F7FE2B880F911D15
:103340009695879597F9089597F99F6780E870E0BB
:1033500060E008959FEF80EC089500240A9416160B
:10336000170618060906089500240A941216130673
:10337000140605060895092E0394000C11F4882301
:1033800052F0BB0F40F4BF2B11F460FF04C06F5F1D
:103390007F4F8F4F9F4F089557FD9058440F551FF3
:1033A00059F05F3F71F04795880F97FB991F61F0C7
:1033B0009F3F79F087950895121613061406551F3E
:1033C000F2CF4695F1DF08C0161617061806991FAA
:1033D000F1CF86957105610508940895E894BB279F
:1033E00066277727CB0197F908952F923F924F9246
:1033F0005F926F927F928F929F92AF92BF92CF9285
:10340000DF92EF92FF920F931F93CF93DF93CDB78D
:10341000DEB7CA1BDB0B0FB6F894DEBF0FBECDBF05
:1034200009942A88398848885F846E847D848C84D6
:103430009B84AA84B984C884DF80EE80FD800C81DF
:103440001B81AA81B981CE0FD11D0FB6F894DEBFC2
:103450000FBECDBFED01089511E0C3E5D1E004C07A
:10346000FE010E9497152196C435D107C9F7F8943B
:02347000FFCF8C
:103472000000803F0000803F0000803F0000803F4E
:103482002D002D000000A105800007000E000F0096
:1034920010001100020003000400050006001500E0
:1034A200140000000000FE0B900C53083108450880
:1034B200450C0000000031020102F901E501D601CC
:1034C200D501000000002004900C000000006A02F8
:1034D200900C5761746572696E6747617264656EBC
:1034E20000444154452F54494D45002A002F0020E5
:1034F20020207C646E7C75707C656E74004441543F
:10350200452F54494D452053455421005359535496
:10351200454D2053544154555300477261737357BC
:1035220054203D200047617264656E5754203D204F
:103532000053656E736F722073656E736974007CDD
:10354200312D007C322D007C332D007C342D004344
:103552006F6C6C656374696E6720006461746120CE
:103562002066726F6D0073656E736F72732E2E2EEE
:1035720000446F6E65210053656E736F7220004DBB
:10358200532044617461207072696E7465640054E2
:10359200696D653A005761746572696E672047729A
:1035A200617373204F4646002E2E2E2E49646C699D
:1035B2006E672E2E2E2E005761746572696E67201B
:1035C2004772617373204F4E005761746572696E62
:1035D20067204772617373004D61696E2053637295
:1035E20065656E004155544F20205741544552495C
:1035F2004E47002020202053595354454D006573F7
:10360200637C7374617C6D737C6D656E0053656E53
:10361200736F720073656E73697469766974790089
:103622003D2020002025002020207C646E7C7570C7
:103632007C7365740073657420746F200057617425
:103642006572696E672054696D650020206D696E30
:10365200005345545550204D454E55006573637CCB
:10366200646E7C75707C656E740047657474696EF7
:103672006744617461204D53004772617373205730
:103682002054696D650053656E736F72205A203144
:103692000047617264656E20572054696D6500535E
:1036A200656E736F72205A2032004D6F69737475A4
:1036B20072652053656E730053656E736F72205A84
:1036C20020330041646A75737420436C6F636B002E
:1036D20053656E736F72205A2034006E616E0069FA
:0A36E2006E66006F7666000D0A00A8
:00000001FF
