:100000000C9464000C948C000C948C000C948C0068
:100010000C948C000C948C000C948C000C948C0030
:100020000C948C000C948C000C948C000C948C0020
:100030000C948C000C948C000C948C000C948C0010
:100040000C9471030C948C000C945A020C9434029E
:100050000C948C000C948C000C948C000C948C00F0
:100060000C9444040C948C00000000002400270031
:100070002A0000000000250028002B0004040404CE
:100080000404040402020202020203030303030342
:10009000010204081020408001020408102001021F
:1000A00004081020000000080002010000030407FB
:1000B00000000000000000001F1C1F1E1F1E1F1F4D
:1000C0001E1F1E1FFA0F640A11241FBECFEFD8E0B7
:1000D000DEBFCDBF12E0A0E0B1E0EEE3FBE202C084
:1000E00005900D92A23CB107D9F724E0A2ECB2E052
:1000F00001C01D92A83BB207E1F710E0C3E6D0E0D3
:1001000004C02197FE010E94EB10C236D107C9F747
:100110000E94740A0C9492150C940000FC01918DBD
:10012000828D981761F0828DDF01A80FB11D5D9659
:100130008C91928D9F5F9F73928F90E008958FEFC7
:100140009FEF0895FC01918D828D981731F0828D7B
:10015000E80FF11D858D90E008958FEF9FEF0895D2
:10016000FC01918D228D892F90E0805C9F4F821B36
:1001700091098F7399270895FC01848DDF01A80FE1
:10018000B11DA35ABF4F2C91848D90E001968F73BF
:100190009927848FA689B7892C93A089B1898C91DE
:1001A00080648C93938D848D981306C00288F389A4
:1001B000E02D80818F7D80830895EF92FF920F93D1
:1001C0001F93CF93DF93EC0181E0888F9B8D8C8D03
:1001D000981305C0E889F989808185FD24C0F62E31
:1001E0000B8D10E00F5F1F4F0F731127E02E8C8DCA
:1001F000E8120CC00FB607FCFACFE889F9898081B4
:1002000085FFF5CFCE010E94BC00F1CF8B8DFE01A2
:10021000E80FF11DE35AFF4FF0820B8FEA89FB894B
:100220008081806207C0EE89FF896083E889F9894F
:1002300080818064808381E090E0DF91CF911F9185
:100240000F91FF90EF900895CF93DF93EC01888D8D
:100250008823C9F0EA89FB89808185FD05C0A889CA
:10026000B9898C9186FD0FC00FB607FCF5CF808150
:1002700085FFF2CFA889B9898C9185FFEDCFCE019A
:100280000E94BC00E7CFDF91CF91089580E090E01D
:10029000892B29F00E94CE0681110C94000008954C
:1002A0003FB7F89480910E0390910F03A091100333
:1002B000B091110326B5A89B05C02F3F19F00196F8
:1002C000A11DB11D3FBFBA2FA92F982F8827820FDC
:1002D000911DA11DB11DBC01CD0142E0660F771F2C
:1002E000881F991F4A95D1F7089585ED8093BC002A
:1002F0008091BC0084FDFCCF10926A030895409168
:10030000E402262F30E0240F311D21323105DCF4C8
:1003100020916A032430C9F4FC0180E090E0861744
:1003200058F43091E4022191DC01AE53BD4FA30F8C
:10033000B11D2C930196F3CF8091E402680F609376
:10034000E40280E0089581E0089582E00895089530
:10035000E0916C0380916B03E81730F4F0E0E3590F
:10036000FC4F808190E008958FEF9FEF089590916A
:100370006C0380916B03981750F4E92FF0E0E35978
:10038000FC4F208130E09F5F90936C0302C02FEF01
:100390003FEFC901089580916B0390E020916C03B9
:1003A000821B91090895CF92DF92EF92FF920F93F3
:1003B0001F93CF93DF937C01262F972F8A01809183
:1003C0002003882391F0C62FD72F6E01C40ED51EAF
:1003D000CC15DD0571F06991D701ED91FC9101908B
:1003E000F081E02DC7010995F3CF642F822F0E9481
:1003F0007F01C801DF91CF911F910F91FF90EF9086
:10040000DF90CF900895CF93DF931F92CDB7DEB7E3
:100410006983209120032223D1F0209143032032CD
:1004200040F021E030E0FC013383228380E090E063
:1004300015C080912103E82FF0E0EE5DFC4F99811B
:1004400090838F5F809321038093430305C061E015
:10045000CE0101960E947F0181E090E00F90DF9134
:10046000CF9108950E9400141F920F920FB60F9221
:1004700011242F933F934F935F936F937F938F93A9
:100480009F93AF93BF93EF93FF938DE893E00E9408
:10049000BC00FF91EF91BF91AF919F918F917F91A0
:1004A0006F915F914F913F912F910F900FBE0F90E1
:1004B0001F9018951F920F920FB60F9211242F9331
:1004C0008F939F93EF93FF93E0919D03F0919E0391
:1004D0008081E091A303F091A40382FD12C090817A
:1004E0008091A6038F5F8F732091A703821751F02D
:1004F000E091A603F0E0E357FC4F958F8093A603AD
:1005000001C08081FF91EF919F918F912F910F906A
:100510000FBE0F901F90189590E0FC01EC55FF4F17
:100520003491FC01E057FF4F2491FC01E458FF4F48
:10053000E491EE2309F43BC0332339F1333091F0D9
:1005400038F43130A9F0323001F584B58F7D12C016
:10055000373091F03830A1F03430B9F48091800018
:100560008F7D03C0809180008F77809380000DC0C5
:1005700084B58F7784BD09C08091B0008F7703C0A8
:100580008091B0008F7D8093B000F0E0EE0FFF1FF0
:10059000EE58FF4FA591B4918FB7F894EC9161118B
:1005A00003C020952E2301C02E2B2C938FBF0895BE
:1005B000CF93DF9390E0FC01E057FF4F2491FC01C3
:1005C000E458FF4F8491882361F190E0880F991FD0
:1005D000FC01E859FF4FC591D491FC01EE58FF4F43
:1005E000A591B491611109C09FB7F89488812095B5
:1005F00082238883EC912E230BC0623061F49FB775
:10060000F8943881822F809583238883EC912E2B58
:100610002C939FBF06C08FB7F894E8812E2B2883B8
:100620008FBFDF91CF9108958E3008F08E50877084
:10063000806480937C0080917A00806480937A004B
:1006400080917A0086FDFCCF80917800209179001E
:1006500090E0922B08958F929F92AF92BF92CF928B
:10066000DF92EF92FF926B017C010E9450014B01DF
:100670005C01C114D104E104F104F1F00E945001C5
:10068000DC01CB0188199909AA09BB09883E93406E
:10069000A105B10570F321E0C21AD108E108F10803
:1006A00088EE880E83E0981EA11CB11CC114D104F1
:1006B000E104F10419F7DDCFFF90EF90DF90CF90C8
:1006C000BF90AF909F908F9008952FB7F89460914E
:1006D0000A0370910B0380910C0390910D032FBFBF
:1006E00008951F920F920FB60F9211242F933F93EC
:1006F0008F939F93AF93BF9380910A0390910B03C5
:10070000A0910C03B0910D033091090323E0230F56
:100710002D3720F40196A11DB11D05C026E8230F39
:100720000296A11DB11D2093090380930A039093A3
:100730000B03A0930C03B0930D0380910E039091D3
:100740000F03A0911003B09111030196A11DB11DDB
:1007500080930E0390930F03A0931003B0931103A3
:10076000BF91AF919F918F913F912F910F900FBEAD
:100770000F901F901895CF92DF92EF92FF920F93F8
:100780001F93CF93DF93EC0181E08093200388E6F1
:1007900080934203109221031092430363E082E7A7
:1007A00094E00E9403020E94720787E090E00E949A
:1007B000290782E794E00E94B7018F77982F9295DE
:1007C0009F701AEF082F919F000D112482E794E08B
:1007D0000E94B7019C01332794E0359527959A959F
:1007E000E1F7F82E129FF00C112482E794E00E94AA
:1007F000B7019C01332744E0359527954A95E1F7E9
:10080000E82E129FE00C112482E794E00E94B701C9
:100810009C01332754E0359527955A95E1F7D82E5A
:10082000129FD00C112482E794E00E94B70182E766
:1008300094E00E94B7019C01332764E03595279529
:100840006A95E1F7C82E129FC00C112482E794E04C
:100850000E94B7019C01332774E0359527957A955E
:10086000E1F7129F800D11248883C982DA82EB821E
:10087000FC820D83CE01DF91CF911F910F91FF90EC
:10088000EF90DF90CF9008951F920F920FB60F92C6
:1008900011242F933F934F935F936F937F938F9385
:1008A0009F93AF93BF93EF93FF938091B900887F9D
:1008B000803609F49CC068F5883209F45BC090F476
:1008C000803109F454C038F4882309F4F6C0883024
:1008D00009F44DC0F6C0883109F44CC0803209F4E7
:1008E0005DC0EFC0803409F468C048F4803309F477
:1008F00055C0883309F0E5C080936803D8C08035BF
:1009000009F44FC0883509F45DC0883409F0D9C0B6
:10091000D6C0883909F4C7C0A8F4883709F467C07D
:1009200038F4883609F463C0803709F460C0C9C060
:10093000883809F4B8C0803909F45FC0803809F0FC
:10094000C0C05BC0803B09F486C038F4803A09F42B
:1009500066C0883A09F47FC0B4C0803C09F4A7C0DF
:10096000883C09F4A4C0883B09F48AC0AAC08091DD
:10097000650310C09091670380916603981770F526
:10098000E091670381E08E0F80936703F0E0EC5BFA
:10099000FC4F80818093BB0085EC86C08093680308
:1009A0008EC0E091670381E08E0F80936703809192
:1009B000BB00F0E0EC5BFC4F80839091670380917B
:1009C00066036EC0E091670381E08E0F809367033A
:1009D0008091BB00F0E0EC5BFC4F80838091690369
:1009E00081116DC081E08093640384EA61C083E07B
:1009F00080936A0310920803CFCF8091080380325E
:100A000008F051C0E091080381E08E0F8093080345
:100A10008091BB00F0E0E851FD4F8083BDCF85ECB5
:100A20008093BC0010926A0380910803803230F4F6
:100A3000E0910803F0E0E851FD4F10826091080357
:100A400070E0E091E602F091E70288EE92E009950D
:100A50001092080336C084E080936A031092E50286
:100A60001092E402E091E202F091E3020995809194
:100A7000E402811105C081E08093E4021092C20279
:100A8000E091E50281E08E0F8093E502F0E0EE5305
:100A9000FD4F80818093BB009091E5028091E4023C
:100AA000981708F479CF85E88093BC000AC085ECDC
:100AB0008093BC0010926A0304C0109268030E94E5
:100AC0007501FF91EF91BF91AF919F918F917F91B0
:100AD0006F915F914F913F912F910F900FBE0F90AB
:100AE0001F901895CF92DF92EF92FF920F931F9372
:100AF000CF93DF936B017C016AE371E08DE893E0B3
:100B00000E94620A42E0C701B6010E94740960E5D2
:100B100071E08DE893E00E944E0A85E10E94140383
:100B2000EC0184E10E9414038C0164EF71E080E029
:100B300090E00E942B03C33583E0D8079CF020E0AF
:100B400030E040E050E4C701B6010E94151487FF71
:100B50001FC02DEC3CEC4CE45EE3C701B6010E94E3
:100B6000F21014C0E2972CF52DEC3CEC4CEC5EE35B
:100B7000C701B6010E94FF11181654F42DEC3CEC8D
:100B80004CE45EE3C701B6010E94F1106B017C01E9
:100B90006AE371E08DE893E00E94620A42E0C701D7
:100BA000B6010E94740960E571E08DE893E00E944F
:100BB0004E0A023513400CF4B0CF63E571E08DE8C6
:100BC00093E00E94620A42E0C701B6010E947409E4
:100BD00060E571E08DE893E00E944E0A68EE73E0F4
:100BE00080E090E00E942B03C701B601DF91CF9116
:100BF0001F910F91FF90EF90DF90CF900895CF92CB
:100C0000DF92EF92FF920F931F93CF93DF93EC014C
:100C10008B01CB010E94200767E671E08DE893E02D
:100C20000E94620ACE010E94F60885E10E94140328
:100C30007C0184E10E9414036C0164EF71E080E0A8
:100C400090E00E942B0383E5E81683E0F8062CF081
:100C5000C837D10554F42F9608C082E3E816F10492
:100C600084F4C031D1050CF02F97C8010E942007F1
:100C700067E671E08DE893E00E94620ACE010E946F
:100C8000F60882E5C81683E0D8067CF2C8010E9407
:100C9000200769E771E08DE893E00E94620ACE01C7
:100CA0000E94360960E971E08DE893E00E944E0AE7
:100CB00068EE73E080E090E00E942B03CE01DF91AC
:100CC000CF911F910F91FF90EF90DF90CF900895FB
:100CD000EF92FF920F931F93CF93DF937B0126E058
:100CE000AC01249FC001259F900D1124EC01CC572D
:100CF000DB4F00E010E08C819D81892BB9F0E88109
:100D0000F9818081882391F00E151F0531F469E97E
:100D100071E08DE893E00E94620ACE010E942007F4
:100D20006BEA71E08DE893E00E94D8060F5F1F4FD9
:100D30002C9604301105F9F6DF91CF911F910F9198
:100D4000FF90EF900895CF92DF92EF92FF920F9372
:100D50001F93CF93DF936C017A018B01C0E0D0E049
:100D6000CE15DF0589F0D8016D918D01D601ED9189
:100D7000FC910190F081E02DC6010995892B11F4B9
:100D80007E0102C02196ECCFC701DF91CF911F9168
:100D90000F91FF90EF90DF90CF9008958DE893E052
:100DA0000E94B00021E0892B09F420E0822F0895F1
:100DB0006115710579F0FB0101900020E9F7319789
:100DC000AF01461B570BDC01ED91FC910280F381D2
:100DD000E02D099480E090E00895E0918D03F0917A
:100DE0008E030190F081E02D682F8DE893E0099447
:100DF000EDE8F3E0A089B18982E08C93A485B58504
:100E00001C92A685B7858FEC8C93108EA489B5892A
:100E100086E08C93A289B3898C9180618C93A2899E
:100E2000B3898C9188608C93A289B3898C918068F6
:100E30008C930288F389E02D80818F7D80830895D3
:100E4000FC0144815581608171818DE893E00C94AF
:100E5000A30690916A039111FCCF813208F080E2E1
:100E600091E090936A03909369032FEF20936803B6
:100E700010926703280F2093660390936503909167
:100E80006503906D9093650390916403913061F4D4
:100E900010926403909165039093BB009091BC0005
:100EA00093FDF8CF95EC01C095EE9093BC00909126
:100EB0006A039130E1F390916703981710F48091E1
:100EC0006703A4E4B3E02DE633E0F9019E2F921B03
:100ED000981718F49D919193F9CF10926C03809319
:100EE0006B0308952091430390914203213208F04F
:100EF0004AC080916A038111FCCF32E030936A03CB
:100F000031E0309369033FEF309368031092670339
:100F100020936603A2E2B3E044E453E0FA013E2FDB
:100F2000341B321718F43D913193F9CF10926503B9
:100F300020916503990F922B909365039091640320
:100F4000913061F410926403909165039093BB001B
:100F50009091BC0093FDF8CF95EC01C095EE909375
:100F6000BC0090916A039230E1F3909168039F3F37
:100F700079F080916803803241F08091680380337A
:100F800031F084E005C081E003C082E001C083E06D
:100F900010922103109243031092200308950F939F
:100FA0001F93CF93DF938C01D1E0D093200388E689
:100FB00080934203109221031092430363E082E77F
:100FC00094E00E940302F8012581CAE0822F6C2F71
:100FD0000E94DF10682F660F860F682F660F620F62
:100FE00082E794E00E940302F8012481822F6C2F93
:100FF0000E94DF10682F660F860F682F660F620F42
:1010000082E794E00E940302F8012381822F6C2F73
:101010000E94DF10682F660F860F682F660F620F21
:1010200082E794E00E940302F8012281822F6C2F54
:101030000E94DF10682F660F860F682F660F620F01
:1010400082E794E00E94030260E082E794E00E945D
:101050000302F8012181822F6C2F0E94DF10682F7C
:10106000660F860F682F660F620F82E794E00E947A
:101070000302F8012081822F6C2F0E94DF10682F5D
:10108000660F860F682F660F620F82E794E00E945A
:1010900003020E947207D093200310922103109242
:1010A000430362E082E794E00E94030260E082E78B
:1010B00094E00E940302DF91CF911F910F910C9455
:1010C0007207EF92FF920F931F93CF93DF93EC0180
:1010D000198218821B821A821D821C826115710579
:1010E000A9F17B01FB0101900020E9F731978F0105
:1010F000061B170BB8016F5F7F4F80E090E00E94E6
:101100003613009759F0998388831B830A832C81B7
:101110003D81232B81F4FC0110820DC088819981CF
:10112000009711F00E949E12198218821D821C8263
:101130001B821A820BC01D830C83B701DF91CF91F4
:101140001F910F91FF90EF900C940E14DF91CF91AF
:101150001F910F91FF90EF9008954F925F926F92C1
:101160007F92EF92FF920F931F93CF93DF93CDB7B0
:10117000DEB7A1970FB6F894DEBF0FBECDBF7C01DE
:10118000FA01CB0119A2223008F42AE08E010F5D8A
:101190001F4F422E512C612C712CBF01A3019201D3
:1011A0000E943915F901CA01015011096A3014F47D
:1011B000605D01C0695CD8016C93232B242B252B27
:1011C00061F7B801C7010E94D806A1960FB6F8943E
:1011D000DEBF0FBECDBFDF91CF911F910F91FF906A
:1011E000EF907F906F905F904F9008950F931F93B3
:1011F000CF93DF9300D000D0CDB7DEB7AC01990F0D
:10120000660B770B77FF1BC08DE249835A836B8394
:101210007C830E94ED068C0149815A816B817C811F
:1012200070956095509541955F4F6F4F7F4F2AE0C5
:101230008DE893E00E94AD08080F191F06C02AE050
:101240008DE893E00E94AD088C016BEA71E08DE8B7
:1012500093E00E94D806800F911F0F900F900F907F
:101260000F90DF91CF911F910F9108950F931F93CE
:10127000CF93DF9300D000D0CDB7DEB7AC01990F8C
:10128000660B770B77FF23C08DE249835A836B830C
:101290007C830E94ED068C0149815A816B817C819F
:1012A00070956095509541955F4F6F4F7F4F2AE045
:1012B0008DE893E00E94AD08800F911F0F900F9072
:1012C0000F900F90DF91CF911F910F9108952AE019
:1012D0008DE893E00F900F900F900F90DF91CF91DA
:1012E0001F910F910C94AD084F925F926F927F9275
:1012F0008F929F92AF92BF92CF92DF92EF92FF9226
:101300006B017C01B42E9B01AC010E940412882366
:1013100019F065EB72E027C026013701E89477F8F1
:101320002FEF3FEF4FE75FE7C301B2010E940412C6
:1013300081110DC02FEF3FEF4FE75FE7C301B2010F
:101340000E94151418161CF469EB72E00CC02FEF04
:101350003FEF4FE75FE4C701B6010E94FF11181687
:1013600094F46DEB72E08DE893E0FF90EF90DF90E6
:10137000CF90BF90AF909F908F907F906F905F9035
:101380004F900C94D8062FEF3FEF4FE75FECC7016B
:10139000B6010E94151487FDE4CF20E030E0A901DA
:1013A000C701B6010E94151487FF09C08DE20E9493
:1013B000ED064C01F7FAF094F7F8F09402C0812C96
:1013C000912CA12C60E070E080E09FE3AB1441F031
:1013D00020E030E040E251E40E945E11A394F6CF99
:1013E0009B01AC01C701B6010E94F2102B013C0128
:1013F0000E94D0116B017C010E941A149B01AC0168
:10140000C301B2010E94F1102B013C012AE0B70197
:10141000A6018DE893E00E94AD087C01E80CF91C60
:10142000BB2029F08EE20E94ED06E80EF91EDB2CAF
:10143000DD2031F120E030E040E251E4C301B201AF
:101440000E947B142B013C010E94D0114B01A12C66
:10145000B12C2AE0B501A4018DE893E00E94AD080B
:10146000E80EF91EC501B4010E941A149B01AC01DB
:10147000C301B2010E94F1102B013C01DA94D8CFD4
:10148000C701FF90EF90DF90CF90BF90AF909F90FB
:101490008F907F906F905F904F9008950F931F9360
:1014A000CF93DF93EC010E94D8068C016BEA71E0C8
:1014B000CE010E94D806800F911FDF91CF911F911E
:1014C0000F9108950C94D806CF93DF93C4EBD4E02A
:1014D0002697888199810E949E1284E0C438D8079B
:1014E000B9F7DF91CF910895CF93DF93CDB7DEB7F2
:1014F0002C970FB6F894DEBF0FBECDBF789484B59D
:10150000826084BD84B5816084BD85B5826085BDFF
:1015100085B5816085BD80916E00816080936E008D
:10152000109281008091810082608093810080917F
:101530008100816080938100809180008160809330
:1015400080008091B10084608093B1008091B000F0
:1015500081608093B00080917A00846080937A00EB
:1015600080917A00826080937A0080917A00816015
:1015700080937A0080917A00806880937A0010923C
:10158000C10010926E0410926F04109270041092B9
:10159000710410922C0410922D0410922E041092BB
:1015A0002F040E9465036B017C014B015C0128EB59
:1015B000820E2BE0921EA11CB11C0E9465036C15CB
:1015C0007D058E059F0528F086169706A806B906A4
:1015D000A0F78DE893E090936D0480936C040E94D3
:1015E000F8060E94650360932C0470932D04809389
:1015F0002E0490932F046CE971E080916C0490911B
:101600006D040E94620A0E9465036B017C014B011C
:101610005C018AE0880E911CA11CB11C0E9465032C
:101620006C157D058E059F0528F086169706A80681
:10163000B906A0F711E01093400460E08FE00E942B
:10164000D80260E080E10E94D80260E081E10E945F
:10165000D80260E08EE00E94D80261E083E00E9440
:10166000D80261E084E00E94D80261E085E00E9437
:10167000D80261E086E00E94D80261E087E00E9423
:10168000D80261E082E00E94D80261E082E10E941B
:10169000D80260E082E10E948C0261E08DE00E944D
:1016A000D80260E084E10E94D80260E085E10E94F7
:1016B000D8026091150370911603809113039091E5
:1016C00014030E9468060E94F80610926C031092A0
:1016D0006B03109221031092430310926A0310933C
:1016E00069031092640361E082E10E948C0261E070
:1016F00083E10E948C028091B9008E7F8093B900B3
:101700008091B9008D7F8093B90088E48093B80000
:1017100085E48093BC001093200388E68093420305
:10172000109221031092430362E082E794E00E944A
:1017300003020E94720781E090E00E94290782E77D
:1017400094E00E94B701807E9927803E910571F454
:1017500083E189831A831B838CE08C831D821E8224
:10176000CE0101960E94CF0710931203CE0101967D
:101770000E94BB0386E0FE013196AEE7B4E0019023
:101780000D928A95E1F70E946503672B682B692B00
:1017900041F40E946503623071058105910508F4EA
:1017A00015C10E94650360931B0370931C03809313
:1017B0001D0390931E0300911703109118032091AD
:1017C000190330911A03601771078207930740F4D9
:1017D00060931703709318038093190390931A036F
:1017E00000911703109118032091190330911A03E7
:1017F0006B017C01C01AD10AE20AF30A9701860143
:101800000A3F11052105310508F4E0C06093170374
:10181000709318038093190390931A0384EF91E057
:10182000A0E0B0E08093380490933904A0933A0488
:10183000B0933B0410923C0410923D0410923E047D
:1018400010923F048091300490913104A0913204B1
:10185000B09133048093340490933504A0933604FC
:10186000B09337040E946503609330047093310491
:1018700080933204909333040E94650360932C0498
:1018800070932D0480932E0490932F040E9465037F
:101890006B017C016EEA71E080916C0490916D04A3
:1018A0000E94620A2AE041E050E060E070E080912E
:1018B0006C0490916D040E94AD0865EB71E080911D
:1018C0006C0490916D040E94620A2AE0B701A6019F
:1018D00080916C0490916D040E94AD0867EB71E0FB
:1018E00080916C0490916D040E94620A8091300492
:1018F00090913104A0913204B0913304B701A60154
:10190000481B590B6A0B7B0B2AE080916C04909169
:101910006D040E94AD0867EB71E080916C049091BA
:101920006D040E94620A409130045091310460912C
:101930003204709133048091340490913504A09165
:101940003604B0913704481B590B6A0B7B0B2AE015
:1019500080916C0490916D040E94AD0869EB71E078
:1019600080916C0490916D040E94620A0E9465034C
:10197000AB01BC012AE080916C0490916D040E943F
:10198000AD086BEB71E080916C0490916D040E9446
:101990004E0A0E9465036B017C014B015C0195E0DE
:1019A000890E911CA11CB11C0E9465036C157D055C
:1019B0008E059F0508F00BC30E94650360933004F9
:1019C00070933104809332049093330462EC71E09D
:1019D0008DE893E00E944E0A609115037091160302
:1019E00080911303909114030E94680684E10E9481
:1019F00014038C0185E10E9414033C0164EF71E043
:101A000080E090E00E942B03209113033091140397
:101A10000335A3E01A070CF48CC22115310509F037
:101A2000F5C18091150390911603892B29F567EC78
:101A300071E0CE0101960E946108BE016F5F7F4F89
:101A400080911201909113010E94FF059093130160
:101A50008093120189819A810E949E12109216032E
:101A600010921503109214031092130360E070E0BB
:101A700080E090E00E946806809115039091160323
:101A8000019729F56DEC71E0CE0101960E94610885
:101A9000BE016F5F7F4F80911001909111010E94F4
:101AA000FF05909311018093100189819A810E9412
:101AB0009E121092160310921503109214031092A6
:101AC000130360E070E080E090E00E94680680917F
:101AD000150390911603029789F410921603109241
:101AE00015038091130390911403019690931403AE
:101AF0008093130360E070E00E94680680911503F4
:101B000090911603039709F027C2CE0107960E9411
:101B1000BB030F8110E00053184FA884B12C8984B7
:101B2000912CCA84D12CEB84F12CC4010E9436097B
:101B300064ED71E08DE893E00E94620AC5010E94A5
:101B4000360964ED71E08DE893E00E94620AC801F5
:101B50000E94360966ED71E08DE893E00E94620A0A
:101B6000C6010E94360967EB71E08DE893E00E94A0
:101B7000620AC7010E94F6086AED71E08DE893E001
:101B80000E94620A80911303909114030E94360907
:101B900068EE73E080E090E00E942B0385E10E94F4
:101BA00014031C0184E10E9414032C0160EE71E017
:101BB0008DE893E00E94620AC1010E94F60868EE77
:101BC00071E08DE893E00E94620AC2010E94F6086B
:101BD00060EF71E08DE893E00E94620A8091130348
:101BE000909114030E94F608B3E52B16B3E03B0670
:101BF0000CF43FC08091130390911403823091053F
:101C0000E9F02CF4009749F0019779F093C0833004
:101C10009105E9F0049721F18DC0083B2BE01207F4
:101C20000CF045C00F5F1F4F42C08CE0A816B104F6
:101C30000CF04CC09FEFA91AB90A48C0AFE18A1650
:101C400091040CF052C0BFEF8B1A9B0A4EC028E1E2
:101C5000C216D1040CF057C08FEFC81AD80A53C06F
:101C60009CE3E916F1040CF05CC0AFEFEA1AFA0A43
:101C700058C0B2E32B1631040CF05CC08091130302
:101C8000909114038230910549F12CF4009749F0AA
:101C90000197A9F04FC08330910579F10497D9F1EC
:101CA00049C0043E27E0120714F0015011096AEF01
:101CB00071E08DE893E00E94620AC80139C082E0B9
:101CC000A816B1041CF091E0A91AB10861E072E015
:101CD0008DE893E00E94620AC5012AC0A2E08A163C
:101CE00091041CF0B1E08B1A910869E072E08DE874
:101CF00093E00E94620AC4011BC0C114D10419F010
:101D000021E0C21AD1086FE072E08DE893E00E94F2
:101D1000620AC6010DC0E114F10419F081E0E81A6D
:101D2000F10866E172E08DE893E00E94620AC70163
:101D30000E94F60864EF71E080E090E00E942B03BF
:101D40008091130390911403A3E54A16A3E05A0669
:101D500014F0019605C0B2E34B1651042CF4019720
:101D600090931403809313038091130390911403B1
:101D700005970CF413CF10921403109213031092D2
:101D800016031092150310921203C801805D97404C
:101D90008983AA828B82CC82ED821E82CE0101963B
:101DA0000E94CF07C4010E94360964ED71E08DE8FE
:101DB00093E00E94620AC5010E94360964ED71E059
:101DC0008DE893E00E94620AC8010E94360966ED20
:101DD00071E08DE893E00E94620AC6010E94360914
:101DE00067EB71E08DE893E00E94620AC7010E94F0
:101DF000F608109216031092150310921403109215
:101E0000130360E070E080E090E0A4C02130310571
:101E100009F0A2C08091150390911603892BF1F46B
:101E20006091000170910101809102019091030184
:101E30000E9472056093000170930101809302017A
:101E400090930301109216031092150360E070E066
:101E500080911303909114030E94680680911503EA
:101E6000909116030197F1F46091040170910501BE
:101E700080910601909107010E9472056093040110
:101E80007093050180930601909307011092160349
:101E90001092150360E070E0809113039091140399
:101EA0000E94680680911503909116030297F1F441
:101EB000609108017091090180910A0190910B01D4
:101EC0000E947205609308017093090180930A01D2
:101ED00090930B01109216031092150360E070E0CE
:101EE00080911303909114030E946806809115035A
:101EF00090911603039781F560910C0170910D018B
:101F000080910E0190910F010E94720560930C0167
:101F100070930D0180930E0190930F0110921603A0
:101F20001092150360E070E0809113039091140308
:101F300011C00233110584F4C90101979093140371
:101F400080931303109216031092150397FD46C059
:101F500060E070E00E94680622E3621671044CF4AF
:101F60008091150390911603181619069CF4019799
:101F70000DC083E5681683E07806B4F08091150300
:101F800090911603833091052CF4019690931603DB
:101F900080931503609115037091160380911303CC
:101FA000909114030E94680680911303909114038A
:101FB00097FF1CCD109214031092130364EF71E08D
:101FC00080E090E00E942B030E944601DCCB861645
:101FD0009706A806B90608F0E7CCEECC92E369169E
:101FE0007104C4F2A3E56A16A3E07A06ECF280E07D
:101FF00090E0CBCF1092900310928F0388EE93E085
:10200000A0E0B0E08093910390939203A093930398
:10201000B09394032EE131E030938E0320938D032F
:1020200025EC30E030939A032093990324EC30E0C0
:1020300030939C0320939B0320EC30E030939E036D
:1020400020939D0321EC30E03093A00320939F0365
:1020500022EC30E03093A2032093A10326EC30E081
:102060003093A4032093A3031092A6031092A70316
:102070001092A8031092A903109230041092310418
:1020800010923204109233041092340410923504EA
:1020900010923604109237041092380410923904CA
:1020A00010923A0410923B0410923C0410923D04AA
:1020B00010923E0410923F04109275041092740422
:1020C0008093760490937704A0937804B093790476
:1020D0008EE291E0909373048093720460E272E068
:1020E00084E894E00E9461086AE372E08AE894E080
:1020F0000E94610868E472E080E994E00E9461084F
:1021000063E672E086E994E00E94610861E772E0AC
:102110008CE994E00E9461086CE872E082EA94E045
:102120000E9461086AE972E088EA94E00E9461080E
:1021300067EA72E08EEA94E00E94610880E1809391
:1021400083048CE18093820486E08093810420E004
:1021500081E697E9E3E9FEEF31E0422F437009F0B1
:1021600030E061E0620F432F50E0DA01A359BE4F27
:102170008A179B0738F09F01241B350B820F931F92
:10218000262FEACF20937E0421E0E22FF0E0E954ED
:10219000FF4FE491332319F0223009F4EF5FF0E0B0
:1021A00041E0420F8E179F0720F08E1B9F0B242FBC
:1021B000ECCF20937F048F5F809380040895991B58
:1021C00079E004C0991F961708F0961B881F7A952E
:1021D000C9F780950895EE0FFF1F0590F491E02D4B
:1021E00009945058BB27AA270E9409110C94FF1488
:1021F0000E94F11438F00E94F81420F039F49F3F47
:1022000019F426F40C94EE140EF4E095E7FB0C940C
:10221000E814E92F0E94101558F3BA1762077307E4
:102220008407950720F079F4A6F50C9432150EF486
:10223000E0950B2EBA2FA02D0B01B90190010C01D6
:10224000CA01A0011124FF27591B99F0593F50F4EE
:10225000503E68F11A16F040A22F232F342F442746
:10226000585FF3CF469537952795A795F04053953E
:10227000C9F77EF41F16BA0B620B730B840BBAF00E
:102280009150A1F0FF0FBB1F661F771F881FC2F779
:102290000EC0BA0F621F731F841F48F4879577958D
:1022A0006795B795F7959E3F08F0B0CF9395880F47
:1022B00008F09927EE0F9795879508950E9472115F
:1022C0000C94FF140E94F81458F00E94F11440F08E
:1022D00029F45F3F29F00C94E81451110C94331544
:1022E0000C94EE140E94101568F39923B1F3552352
:1022F00091F3951B550BBB27AA2762177307840719
:1023000038F09F5F5F4F220F331F441FAA1FA9F3AE
:1023100035D00E2E3AF0E0E832D091505040E6959C
:10232000001CCAF72BD0FE2F29D0660F771F881FFD
:10233000BB1F261737074807AB07B0E809F0BB0BF0
:10234000802DBF01FF2793585F4F3AF09E3F510504
:1023500078F00C94E8140C9433155F3FE4F3983E46
:10236000D4F3869577956795B795F7959F5FC9F7ED
:10237000880F911D9695879597F90895E1E0660F6E
:10238000771F881FBB1F621773078407BA0720F0E7
:10239000621B730B840BBA0BEE1F88F7E095089550
:1023A0000E94181588F09F5798F0B92F9927B751B8
:1023B000B0F0E1F0660F771F881F991F1AF0BA95E9
:1023C000C9F714C0B13091F00E943215B1E0089500
:1023D0000C943215672F782F8827B85F39F0B93FF2
:1023E000CCF3869577956795B395D9F73EF490959C
:1023F0008095709561957F4F8F4F9F4F08950E94F4
:10240000571408F48FEF08950E945714880B990B06
:102410000895CF93DF938230910510F482E090E02D
:10242000E091B604F091B70420E030E0C0E0D0E0E5
:10243000309711F14081518148175907C0F0481772
:10244000590761F482819381209719F09B838A83D5
:102450002BC09093B7048093B60426C02115310594
:1024600019F04217530718F49A01BE01DF01EF017A
:102470000280F381E02DDCCF2115310509F1281B05
:10248000390B2430310590F412968D919C9113975D
:102490006115710521F0FB019383828304C0909341
:1024A000B7048093B604FD01329644C0FD01E20FEB
:1024B000F31F81939193225031092D933C933AC09D
:1024C0002091B4043091B504232B41F420911601DE
:1024D000309117013093B5042093B4042091140176
:1024E000309115012115310541F42DB73EB74091CA
:1024F000180150911901241B350BE091B404F0919F
:10250000B504E217F307A0F42E1B3F0B2817390779
:1025100078F0AC014E5F5F4F2417350748F04E0F3F
:102520005F1F5093B5044093B4048193919302C00C
:10253000E0E0F0E0CF01DF91CF9108950F931F937A
:10254000CF93DF93009709F48CC0FC01329713827C
:1025500012820091B6041091B7040115110581F49F
:1025600020813181820F931F2091B4043091B504F2
:102570002817390779F5F093B504E093B40471C0D6
:10258000D80140E050E0AE17BF0750F412962D91ED
:102590003C911397AD012115310509F1D901F3CF14
:1025A0009D01DA013383228360817181860F971F39
:1025B0008217930769F4EC0128813981260F371FB0
:1025C0002E5F3F4F318320838A819B819383828357
:1025D000452B29F4F093B704E093B60442C0139658
:1025E000FC93EE931297ED01499159919E01240FAE
:1025F000351FE217F30771F480819181840F951FD5
:10260000029611969C938E938281938113969C934C
:102610008E931297E0E0F0E0D80112968D919C9194
:102620001397009719F0F8018C01F6CF8D919C91CA
:1026300098012E5F3F4F820F931F2091B404309179
:10264000B5042817390769F4309729F41092B704B4
:102650001092B60402C0138212821093B504009344
:10266000B404DF91CF911F910F910895A0E0B0E0E5
:10267000ECE3F3E10C945F15EC01009721F4CB013E
:102680000E940912B8C0FC01E60FF71F9C012250FE
:102690003109E217F30708F4ACC0D9010D911C9180
:1026A000119706171707B0F00530110508F49FC001
:1026B000C80104978617970708F499C002501109BA
:1026C000061B170B019311936D937C93CF010E940E
:1026D0009E128DC05B01A01AB10A4C01800E911EA2
:1026E000A091B604B091B70440E050E0E12CF12C89
:1026F000109709F44AC0A815B905D1F56D907C90E2
:102700001197630182E0C80ED11CCA14DB0480F16A
:10271000A3014A195B096A0182E0C80ED11C129616
:10272000BC9012971396AC91B5E0CB16D10440F053
:10273000B282A38351834083D9016D937C930AC0F5
:102740000E5F1F4FC301800F911FF901918380839A
:10275000EB2DFA2FE114F10431F0D7011396FC931D
:10276000EE93129744C0F093B704E093B6043FC0D1
:102770008D919C9111974817590708F4AC017D0180
:1027800012960D90BC91A02DB3CF8091B40490917E
:10279000B50488159905E1F446175707C8F48091E8
:1027A000140190911501009741F48DB79EB74091A7
:1027B000180150911901841B950BE817F907C8F40B
:1027C000F093B504E093B404F901718360830FC002
:1027D000CB010E9409127C01009759F0A801BE01AB
:1027E0000E940514CE010E949E12C70104C0CE01B2
:1027F00002C080E090E0CDB7DEB7EEE00C947B1530
:1028000081E090E0F8940C949215FB01DC0102C089
:1028100001900D9241505040D8F70895FB01DC0122
:1028200001900D920020E1F708950E94571408F4DA
:1028300081E00895E89409C097FB3EF49095809557
:10284000709561957F4F8F4F9F4F9923A9F0F92F76
:1028500096E9BB279395F695879577956795B795F4
:10286000F111F8CFFAF4BB0F11F460FF1BC06F5FDA
:102870007F4F8F4F9F4F16C0882311F096E911C0EC
:10288000772321F09EE8872F762F05C0662371F00D
:1028900096E8862F70E060E02AF09A95660F771F21
:1028A000881FDAF7880F9695879597F90895990FFD
:1028B0000008550FAA0BE0E8FEEF16161706E8070A
:1028C000F907C0F012161306E407F50798F0621B2B
:1028D000730B840B950B39F40A2661F0232B242B00
:1028E000252B21F408950A2609F4A140A6958FEF1F
:1028F000811D811D08950E948E140C94FF140E9466
:10290000F11438F00E94F81420F0952311F00C9483
:10291000E8140C94EE1411240C9433150E94101535
:1029200070F3959FC1F3950F50E0551F629FF00122
:10293000729FBB27F00DB11D639FAA27F00DB11D3B
:10294000AA1F649F6627B00DA11D661F829F2227C4
:10295000B00DA11D621F739FB00DA11D621F839F4B
:10296000A00D611D221F749F3327A00D611D231F21
:10297000849F600D211D822F762F6A2F11249F576F
:1029800050409AF0F1F088234AF0EE0FFF1FBB1F72
:10299000661F771F881F91505040A9F79E3F510531
:1029A00080F00C94E8140C9433155F3FE4F3983EE8
:1029B000D4F3869577956795B795F795E7959F5FDB
:1029C000C1F7FE2B880F911D9695879597F908956D
:1029D00097F99F6780E870E060E008959FEF80ECD2
:1029E000089500240A941616170618060906089575
:1029F00000240A9412161306140605060895092EDB
:102A00000394000C11F4882352F0BB0F40F4BF2B49
:102A100011F460FF04C06F5F7F4F8F4F9F4F089589
:102A200057FD9058440F551F59F05F3F71F047957F
:102A3000880F97FB991F61F09F3F79F08795089564
:102A4000121613061406551FF2CF4695F1DF08C083
:102A5000161617061806991FF1CF869571056105A0
:102A600008940895E894BB2766277727CB0197F948
:102A70000895A1E21A2EAA1BBB1BFD010DC0AA1FBF
:102A8000BB1FEE1FFF1FA217B307E407F50720F0D7
:102A9000A21BB30BE40BF50B661F771F881F991F52
:102AA0001A9469F760957095809590959B01AC019B
:102AB000BD01CF0108952F923F924F925F926F9286
:102AC0007F928F929F92AF92BF92CF92DF92EF92BE
:102AD000FF920F931F93CF93DF93CDB7DEB7CA1B3F
:102AE000DB0B0FB6F894DEBF0FBECDBF09942A886A
:102AF000398848885F846E847D848C849B84AA8412
:102B0000B984C884DF80EE80FD800C811B81AA819E
:102B1000B981CE0FD11D0FB6F894DEBF0FBECDBF69
:102B2000ED01089510E0C3E6D0E004C0FE010E946C
:0E2B3000EB102196C436D107C9F7F894FFCFF9
:102B3E000000803F0000803F0000803F0000803F8B
:102B4E001E003C000000B804800000000000DD0004
:102B5E00A306B0008E00A2002401000000000302B4
:102B6E00D301CB01B701A801A70153656E736F7234
:102B7E002073656E7369746976697479203D2000DF
:102B8E0020250053656E73697469766974792073B4
:102B9E00657420746F2000207761746572696E67AA
:102BAE002054696D65203D2000207761746572693F
:102BBE006E672074696D652073657420746F2000D4
:102BCE00206D696E75746573002B2B00564D445045
:102BDE00565F317C315F564D4450560D0A00564DAE
:102BEE004450455F003A323A007C005F564D4450E7
:102BFE0045006C6F6F7000477261737300476172AE
:102C0E0064656E002F00202020004C52203A2000D8
:102C1E0042202055443A20004220204C523A2000B7
:102C2E004C524D6F7665203A2000596561723A20FC
:102C3E00004D6F6E74683A20004461793A20004866
:102C4E006F75723A20004D696E757465733A200087
:102C5E005365747570204772617373205761746584
:102C6E0072696E672054696D650053656E736F727D
:102C7E00205A6F6E65203100536574757020476160
:102C8E007264656E205761746572696E672054694F
:102C9E006D650053656E736F72205A6F6E652032CC
:102CAE00005365747570204D6F697374757265206D
:102CBE0053656E73697469766974790053656E73C2
:102CCE006F72205A6F6E6520330041646A7573749B
:102CDE0020436C6F636B0053656E736F72205A6F77
:102CEE006E652034006E616E00696E66006F7666EA
:022CFE000000D4
:040000050080047EF5
:00000001FF
